{
  "_format": "hh-sol-artifact-1",
  "contractName": "LandRegistry",
  "sourceName": "contracts/LandRegistry.sol",
  "abi": [
    {
      "inputs": [],
      "stateMutability": "nonpayable",
      "type": "constructor"
    },
    {
      "anonymous": false,
      "inputs": [
        {
          "indexed": true,
          "internalType": "uint256",
          "name": "landId",
          "type": "uint256"
        },
        {
          "indexed": true,
          "internalType": "address",
          "name": "from",
          "type": "address"
        },
        {
          "indexed": true,
          "internalType": "address",
          "name": "to",
          "type": "address"
        }
      ],
      "name": "LandTransferred",
      "type": "event"
    },
    {
      "inputs": [
        {
          "internalType": "uint256",
          "name": "",
          "type": "uint256"
        }
      ],
      "name": "buildingPermits",
      "outputs": [
        {
          "internalType": "bool",
          "name": "",
          "type": "bool"
        }
      ],
      "stateMutability": "view",
      "type": "function"
    },
    {
      "inputs": [],
      "name": "getTotalLands",
      "outputs": [
        {
          "internalType": "uint256",
          "name": "",
          "type": "uint256"
        }
      ],
      "stateMutability": "view",
      "type": "function"
    },
    {
      "inputs": [],
      "name": "getTotalUsers",
      "outputs": [
        {
          "internalType": "uint256",
          "name": "",
          "type": "uint256"
        }
      ],
      "stateMutability": "view",
      "type": "function"
    },
    {
      "inputs": [],
      "name": "getVerifiedLandsCount",
      "outputs": [
        {
          "internalType": "uint256",
          "name": "",
          "type": "uint256"
        }
      ],
      "stateMutability": "view",
      "type": "function"
    },
    {
      "inputs": [
        {
          "internalType": "uint256",
          "name": "_landId",
          "type": "uint256"
        }
      ],
      "name": "grantBuildingPermission",
      "outputs": [],
      "stateMutability": "nonpayable",
      "type": "function"
    },
    {
      "inputs": [
        {
          "internalType": "uint256",
          "name": "",
          "type": "uint256"
        }
      ],
      "name": "lands",
      "outputs": [
        {
          "internalType": "uint256",
          "name": "id",
          "type": "uint256"
        },
        {
          "internalType": "string",
          "name": "location",
          "type": "string"
        },
        {
          "internalType": "uint256",
          "name": "size",
          "type": "uint256"
        },
        {
          "internalType": "address",
          "name": "owner",
          "type": "address"
        },
        {
          "internalType": "bool",
          "name": "isVerified",
          "type": "bool"
        }
      ],
      "stateMutability": "view",
      "type": "function"
    },
    {
      "inputs": [],
      "name": "owner",
      "outputs": [
        {
          "internalType": "address",
          "name": "",
          "type": "address"
        }
      ],
      "stateMutability": "view",
      "type": "function"
    },
    {
      "inputs": [
        {
          "internalType": "string",
          "name": "_location",
          "type": "string"
        },
        {
          "internalType": "uint256",
          "name": "_size",
          "type": "uint256"
        }
      ],
      "name": "registerLand",
      "outputs": [],
      "stateMutability": "nonpayable",
      "type": "function"
    },
    {
      "inputs": [
        {
          "internalType": "string",
          "name": "_name",
          "type": "string"
        },
        {
          "internalType": "string",
          "name": "_role",
          "type": "string"
        }
      ],
      "name": "registerUser",
      "outputs": [],
      "stateMutability": "nonpayable",
      "type": "function"
    },
    {
      "inputs": [],
      "name": "totalLands",
      "outputs": [
        {
          "internalType": "uint256",
          "name": "",
          "type": "uint256"
        }
      ],
      "stateMutability": "view",
      "type": "function"
    },
    {
      "inputs": [],
      "name": "totalUsers",
      "outputs": [
        {
          "internalType": "uint256",
          "name": "",
          "type": "uint256"
        }
      ],
      "stateMutability": "view",
      "type": "function"
    },
    {
      "inputs": [
        {
          "internalType": "address",
          "name": "_to",
          "type": "address"
        },
        {
          "internalType": "uint256",
          "name": "_landId",
          "type": "uint256"
        }
      ],
      "name": "transferLand",
      "outputs": [],
      "stateMutability": "nonpayable",
      "type": "function"
    },
    {
      "inputs": [
        {
          "internalType": "address",
          "name": "",
          "type": "address"
        }
      ],
      "name": "users",
      "outputs": [
        {
          "internalType": "string",
          "name": "name",
          "type": "string"
        },
        {
          "internalType": "string",
          "name": "role",
          "type": "string"
        },
        {
          "internalType": "bool",
          "name": "isRegistered",
          "type": "bool"
        }
      ],
      "stateMutability": "view",
      "type": "function"
    },
    {
      "inputs": [
        {
          "internalType": "uint256",
          "name": "_landId",
          "type": "uint256"
        }
      ],
      "name": "verifyLand",
      "outputs": [],
      "stateMutability": "nonpayable",
      "type": "function"
    }
  ],
  "bytecode": "0x608060405234801561001057600080fd5b50336000806101000a81548173ffffffffffffffffffffffffffffffffffffffff021916908373ffffffffffffffffffffffffffffffffffffffff160217905550611852806100606000396000f3fe608060405234801561001057600080fd5b50600436106100ea5760003560e01c8063a87430ba1161008c578063c09414a311610066578063c09414a31461023d578063ce924ed914610259578063e261f1e514610275578063f9c43bdf146102a9576100ea565b8063a87430ba146101d1578063b3f40d6a14610203578063bff1f9e11461021f576100ea565b806380218a1e116100c857806380218a1e14610147578063842e7dba146101775780638da5cb5b146101955780639be572f6146101b3576100ea565b80631d2e4afd146100ef5780631d8de0631461010b5780634e4d8b8114610129575b600080fd5b61010960048036038101906101049190610e23565b6102c5565b005b61011361041d565b6040516101209190610eb4565b60405180910390f35b610131610423565b60405161013e9190610eb4565b60405180910390f35b610161600480360381019061015c9190610efb565b61048d565b60405161016e9190610f43565b60405180910390f35b61017f6104ad565b60405161018c9190610eb4565b60405180910390f35b61019d6104b7565b6040516101aa9190610f9f565b60405180910390f35b6101bb6104db565b6040516101c89190610eb4565b60405180910390f35b6101eb60048036038101906101e69190610fe6565b6104e5565b6040516101fa93929190611092565b60405180910390f35b61021d600480360381019061021891906110d7565b61062c565b005b610227610813565b6040516102349190610eb4565b60405180910390f35b61025760048036038101906102529190610efb565b610819565b005b610273600480360381019061026e9190611117565b61092f565b005b61028f600480360381019061028a9190610efb565b610ac5565b6040516102a0959493929190611173565b60405180910390f35b6102c360048036038101906102be9190610efb565b610bb0565b005b600560003373ffffffffffffffffffffffffffffffffffffffff1673ffffffffffffffffffffffffffffffffffffffff16815260200190815260200160002060020160009054906101000a900460ff1615610355576040517f08c379a000000000000000000000000000000000000000000000000000000000815260040161034c90611219565b60405180910390fd5b604051806060016040528083815260200182815260200160011515815250600560003373ffffffffffffffffffffffffffffffffffffffff1673ffffffffffffffffffffffffffffffffffffffff16815260200190815260200160002060008201518160000190816103c79190611445565b5060208201518160010190816103dd9190611445565b5060408201518160020160006101000a81548160ff0219169083151502179055509050506002600081548092919061041490611546565b91905055505050565b60015481565b600080600090506000600190505b6001548111610485576004600082815260200190815260200160002060030160149054906101000a900460ff161561047257818061046e90611546565b9250505b808061047d90611546565b915050610431565b508091505090565b60036020528060005260406000206000915054906101000a900460ff1681565b6000600154905090565b60008054906101000a900473ffffffffffffffffffffffffffffffffffffffff1681565b6000600254905090565b600560205280600052604060002060009150905080600001805461050890611268565b80601f016020809104026020016040519081016040528092919081815260200182805461053490611268565b80156105815780601f1061055657610100808354040283529160200191610581565b820191906000526020600020905b81548152906001019060200180831161056457829003601f168201915b50505050509080600101805461059690611268565b80601f01602080910402602001604051908101604052809291908181526020018280546105c290611268565b801561060f5780601f106105e45761010080835404028352916020019161060f565b820191906000526020600020905b8154815290600101906020018083116105f257829003601f168201915b5050505050908060020160009054906101000a900460ff16905083565b3373ffffffffffffffffffffffffffffffffffffffff166004600083815260200190815260200160002060030160009054906101000a900473ffffffffffffffffffffffffffffffffffffffff1673ffffffffffffffffffffffffffffffffffffffff16146106d0576040517f08c379a00000000000000000000000000000000000000000000000000000000081526004016106c790611600565b60405180910390fd5b600560008373ffffffffffffffffffffffffffffffffffffffff1673ffffffffffffffffffffffffffffffffffffffff16815260200190815260200160002060020160009054906101000a900460ff1661075f576040517f08c379a000000000000000000000000000000000000000000000000000000000815260040161075690611692565b60405180910390fd5b816004600083815260200190815260200160002060030160006101000a81548173ffffffffffffffffffffffffffffffffffffffff021916908373ffffffffffffffffffffffffffffffffffffffff1602179055508173ffffffffffffffffffffffffffffffffffffffff163373ffffffffffffffffffffffffffffffffffffffff16827f1080b2f211753e5090f26ef7ffdc6bb3e66a125c7290200d10b502160bb1f56660405160405180910390a45050565b60025481565b60008054906101000a900473ffffffffffffffffffffffffffffffffffffffff1673ffffffffffffffffffffffffffffffffffffffff163373ffffffffffffffffffffffffffffffffffffffff16146108a7576040517f08c379a000000000000000000000000000000000000000000000000000000000815260040161089e90611724565b60405180910390fd5b6000600460008381526020019081526020016000206000015403610900576040517f08c379a00000000000000000000000000000000000000000000000000000000081526004016108f790611790565b60405180910390fd5b60016003600083815260200190815260200160002060006101000a81548160ff02191690831515021790555050565b600560003373ffffffffffffffffffffffffffffffffffffffff1673ffffffffffffffffffffffffffffffffffffffff16815260200190815260200160002060020160009054906101000a900460ff166109be576040517f08c379a00000000000000000000000000000000000000000000000000000000081526004016109b5906117fc565b60405180910390fd5b600160008154809291906109d190611546565b91905055506040518060a0016040528060015481526020018381526020018281526020013373ffffffffffffffffffffffffffffffffffffffff16815260200160001515815250600460006001548152602001908152602001600020600082015181600001556020820151816001019081610a4c9190611445565b506040820151816002015560608201518160030160006101000a81548173ffffffffffffffffffffffffffffffffffffffff021916908373ffffffffffffffffffffffffffffffffffffffff16021790555060808201518160030160146101000a81548160ff0219169083151502179055509050505050565b6004602052806000526040600020600091509050806000015490806001018054610aee90611268565b80601f0160208091040260200160405190810160405280929190818152602001828054610b1a90611268565b8015610b675780601f10610b3c57610100808354040283529160200191610b67565b820191906000526020600020905b815481529060010190602001808311610b4a57829003601f168201915b5050505050908060020154908060030160009054906101000a900473ffffffffffffffffffffffffffffffffffffffff16908060030160149054906101000a900460ff16905085565b60008054906101000a900473ffffffffffffffffffffffffffffffffffffffff1673ffffffffffffffffffffffffffffffffffffffff163373ffffffffffffffffffffffffffffffffffffffff1614610c3e576040517f08c379a0000000000000000000000000000000000000000000000000000000008152600401610c3590611724565b60405180910390fd5b6000600460008381526020019081526020016000206000015403610c97576040517f08c379a0000000000000000000000000000000000000000000000000000000008152600401610c8e90611790565b60405180910390fd5b60016004600083815260200190815260200160002060030160146101000a81548160ff02191690831515021790555050565b6000604051905090565b600080fd5b600080fd5b600080fd5b600080fd5b6000601f19601f8301169050919050565b7f4e487b7100000000000000000000000000000000000000000000000000000000600052604160045260246000fd5b610d3082610ce7565b810181811067ffffffffffffffff82111715610d4f57610d4e610cf8565b5b80604052505050565b6000610d62610cc9565b9050610d6e8282610d27565b919050565b600067ffffffffffffffff821115610d8e57610d8d610cf8565b5b610d9782610ce7565b9050602081019050919050565b82818337600083830152505050565b6000610dc6610dc184610d73565b610d58565b905082815260208101848484011115610de257610de1610ce2565b5b610ded848285610da4565b509392505050565b600082601f830112610e0a57610e09610cdd565b5b8135610e1a848260208601610db3565b91505092915050565b60008060408385031215610e3a57610e39610cd3565b5b600083013567ffffffffffffffff811115610e5857610e57610cd8565b5b610e6485828601610df5565b925050602083013567ffffffffffffffff811115610e8557610e84610cd8565b5b610e9185828601610df5565b9150509250929050565b6000819050919050565b610eae81610e9b565b82525050565b6000602082019050610ec96000830184610ea5565b92915050565b610ed881610e9b565b8114610ee357600080fd5b50565b600081359050610ef581610ecf565b92915050565b600060208284031215610f1157610f10610cd3565b5b6000610f1f84828501610ee6565b91505092915050565b60008115159050919050565b610f3d81610f28565b82525050565b6000602082019050610f586000830184610f34565b92915050565b600073ffffffffffffffffffffffffffffffffffffffff82169050919050565b6000610f8982610f5e565b9050919050565b610f9981610f7e565b82525050565b6000602082019050610fb46000830184610f90565b92915050565b610fc381610f7e565b8114610fce57600080fd5b50565b600081359050610fe081610fba565b92915050565b600060208284031215610ffc57610ffb610cd3565b5b600061100a84828501610fd1565b91505092915050565b600081519050919050565b600082825260208201905092915050565b60005b8381101561104d578082015181840152602081019050611032565b60008484015250505050565b600061106482611013565b61106e818561101e565b935061107e81856020860161102f565b61108781610ce7565b840191505092915050565b600060608201905081810360008301526110ac8186611059565b905081810360208301526110c08185611059565b90506110cf6040830184610f34565b949350505050565b600080604083850312156110ee576110ed610cd3565b5b60006110fc85828601610fd1565b925050602061110d85828601610ee6565b9150509250929050565b6000806040838503121561112e5761112d610cd3565b5b600083013567ffffffffffffffff81111561114c5761114b610cd8565b5b61115885828601610df5565b925050602061116985828601610ee6565b9150509250929050565b600060a0820190506111886000830188610ea5565b818103602083015261119a8187611059565b90506111a96040830186610ea5565b6111b66060830185610f90565b6111c36080830184610f34565b9695505050505050565b7f5573657220616c72656164792072656769737465726564000000000000000000600082015250565b600061120360178361101e565b915061120e826111cd565b602082019050919050565b60006020820190508181036000830152611232816111f6565b9050919050565b7f4e487b7100000000000000000000000000000000000000000000000000000000600052602260045260246000fd5b6000600282049050600182168061128057607f821691505b60208210810361129357611292611239565b5b50919050565b60008190508160005260206000209050919050565b60006020601f8301049050919050565b600082821b905092915050565b6000600883026112fb7fffffffffffffffffffffffffffffffffffffffffffffffffffffffffffffffff826112be565b61130586836112be565b95508019841693508086168417925050509392505050565b6000819050919050565b600061134261133d61133884610e9b565b61131d565b610e9b565b9050919050565b6000819050919050565b61135c83611327565b61137061136882611349565b8484546112cb565b825550505050565b600090565b611385611378565b611390818484611353565b505050565b5b818110156113b4576113a960008261137d565b600181019050611396565b5050565b601f8211156113f9576113ca81611299565b6113d3846112ae565b810160208510156113e2578190505b6113f66113ee856112ae565b830182611395565b50505b505050565b600082821c905092915050565b600061141c600019846008026113fe565b1980831691505092915050565b6000611435838361140b565b9150826002028217905092915050565b61144e82611013565b67ffffffffffffffff81111561146757611466610cf8565b5b6114718254611268565b61147c8282856113b8565b600060209050601f8311600181146114af576000841561149d578287015190505b6114a78582611429565b86555061150f565b601f1984166114bd86611299565b60005b828110156114e5578489015182556001820191506020850194506020810190506114c0565b8683101561150257848901516114fe601f89168261140b565b8355505b6001600288020188555050505b505050505050565b7f4e487b7100000000000000000000000000000000000000000000000000000000600052601160045260246000fd5b600061155182610e9b565b91507fffffffffffffffffffffffffffffffffffffffffffffffffffffffffffffffff820361158357611582611517565b5b600182019050919050565b7f596f7520617265206e6f7420746865206f776e6572206f662074686973206c6160008201527f6e642e0000000000000000000000000000000000000000000000000000000000602082015250565b60006115ea60238361101e565b91506115f58261158e565b604082019050919050565b60006020820190508181036000830152611619816115dd565b9050919050565b7f54686520726563697069656e74206973206e6f7420612072656769737465726560008201527f6420757365722e00000000000000000000000000000000000000000000000000602082015250565b600061167c60278361101e565b915061168782611620565b604082019050919050565b600060208201905081810360008301526116ab8161166f565b9050919050565b7f4f6e6c79206f776e65722063616e20706572666f726d2074686973206163746960008201527f6f6e000000000000000000000000000000000000000000000000000000000000602082015250565b600061170e60228361101e565b9150611719826116b2565b604082019050919050565b6000602082019050818103600083015261173d81611701565b9050919050565b7f4c616e6420646f6573206e6f7420657869737400000000000000000000000000600082015250565b600061177a60138361101e565b915061178582611744565b602082019050919050565b600060208201905081810360008301526117a98161176d565b9050919050565b7f55736572206e6f74207265676973746572656400000000000000000000000000600082015250565b60006117e660138361101e565b91506117f1826117b0565b602082019050919050565b60006020820190508181036000830152611815816117d9565b905091905056fea26469706673582212207a78d9ee57e18a835f017d9fc774a10f01b6e04d34ec751b237c217275aab5ca64736f6c63430008180033",
  "linkReferences": {},
  "deployedLinkReferences": {}
}