{
  "_format": "hh-sol-artifact-1",
  "contractName": "LandRegistry",
  "sourceName": "contracts/LandRegistry.sol",
  "abi": [
    {
      "inputs": [],
      "stateMutability": "nonpayable",
      "type": "constructor"
    },
    {
      "inputs": [],
      "name": "getTotalLands",
      "outputs": [
        {
          "internalType": "uint256",
          "name": "",
          "type": "uint256"
        }
      ],
      "stateMutability": "view",
      "type": "function"
    },
    {
      "inputs": [],
      "name": "getTotalUsers",
      "outputs": [
        {
          "internalType": "uint256",
          "name": "",
          "type": "uint256"
        }
      ],
      "stateMutability": "view",
      "type": "function"
    },
    {
      "inputs": [],
      "name": "getVerifiedLandsCount",
      "outputs": [
        {
          "internalType": "uint256",
          "name": "",
          "type": "uint256"
        }
      ],
      "stateMutability": "view",
      "type": "function"
    },
    {
      "inputs": [
        {
          "internalType": "uint256",
          "name": "",
          "type": "uint256"
        }
      ],
      "name": "lands",
      "outputs": [
        {
          "internalType": "uint256",
          "name": "id",
          "type": "uint256"
        },
        {
          "internalType": "string",
          "name": "location",
          "type": "string"
        },
        {
          "internalType": "uint256",
          "name": "size",
          "type": "uint256"
        },
        {
          "internalType": "address",
          "name": "owner",
          "type": "address"
        },
        {
          "internalType": "bool",
          "name": "isVerified",
          "type": "bool"
        }
      ],
      "stateMutability": "view",
      "type": "function"
    },
    {
      "inputs": [],
      "name": "owner",
      "outputs": [
        {
          "internalType": "address",
          "name": "",
          "type": "address"
        }
      ],
      "stateMutability": "view",
      "type": "function"
    },
    {
      "inputs": [
        {
          "internalType": "string",
          "name": "_location",
          "type": "string"
        },
        {
          "internalType": "uint256",
          "name": "_size",
          "type": "uint256"
        }
      ],
      "name": "registerLand",
      "outputs": [],
      "stateMutability": "nonpayable",
      "type": "function"
    },
    {
      "inputs": [
        {
          "internalType": "string",
          "name": "_name",
          "type": "string"
        },
        {
          "internalType": "string",
          "name": "_role",
          "type": "string"
        }
      ],
      "name": "registerUser",
      "outputs": [],
      "stateMutability": "nonpayable",
      "type": "function"
    },
    {
      "inputs": [],
      "name": "totalLands",
      "outputs": [
        {
          "internalType": "uint256",
          "name": "",
          "type": "uint256"
        }
      ],
      "stateMutability": "view",
      "type": "function"
    },
    {
      "inputs": [],
      "name": "totalUsers",
      "outputs": [
        {
          "internalType": "uint256",
          "name": "",
          "type": "uint256"
        }
      ],
      "stateMutability": "view",
      "type": "function"
    },
    {
      "inputs": [
        {
          "internalType": "address",
          "name": "",
          "type": "address"
        }
      ],
      "name": "users",
      "outputs": [
        {
          "internalType": "string",
          "name": "name",
          "type": "string"
        },
        {
          "internalType": "string",
          "name": "role",
          "type": "string"
        },
        {
          "internalType": "bool",
          "name": "isRegistered",
          "type": "bool"
        }
      ],
      "stateMutability": "view",
      "type": "function"
    },
    {
      "inputs": [
        {
          "internalType": "uint256",
          "name": "_landId",
          "type": "uint256"
        }
      ],
      "name": "verifyLand",
      "outputs": [],
      "stateMutability": "nonpayable",
      "type": "function"
    }
  ],
  "bytecode": "0x608060405234801561001057600080fd5b50336000806101000a81548173ffffffffffffffffffffffffffffffffffffffff021916908373ffffffffffffffffffffffffffffffffffffffff16021790555061130d806100606000396000f3fe608060405234801561001057600080fd5b50600436106100a95760003560e01c80639be572f6116100715780639be572f614610142578063a87430ba14610160578063bff1f9e114610192578063ce924ed9146101b0578063e261f1e5146101cc578063f9c43bdf14610200576100a9565b80631d2e4afd146100ae5780631d8de063146100ca5780634e4d8b81146100e8578063842e7dba146101065780638da5cb5b14610124575b600080fd5b6100c860048036038101906100c39190610a5d565b61021c565b005b6100d2610374565b6040516100df9190610aee565b60405180910390f35b6100f061037a565b6040516100fd9190610aee565b60405180910390f35b61010e6103e4565b60405161011b9190610aee565b60405180910390f35b61012c6103ee565b6040516101399190610b4a565b60405180910390f35b61014a610412565b6040516101579190610aee565b60405180910390f35b61017a60048036038101906101759190610b91565b61041c565b60405161018993929190610c58565b60405180910390f35b61019a610563565b6040516101a79190610aee565b60405180910390f35b6101ca60048036038101906101c59190610cc9565b610569565b005b6101e660048036038101906101e19190610d25565b6106ff565b6040516101f7959493929190610d52565b60405180910390f35b61021a60048036038101906102159190610d25565b6107ea565b005b600460003373ffffffffffffffffffffffffffffffffffffffff1673ffffffffffffffffffffffffffffffffffffffff16815260200190815260200160002060020160009054906101000a900460ff16156102ac576040517f08c379a00000000000000000000000000000000000000000000000000000000081526004016102a390610df8565b60405180910390fd5b604051806060016040528083815260200182815260200160011515815250600460003373ffffffffffffffffffffffffffffffffffffffff1673ffffffffffffffffffffffffffffffffffffffff168152602001908152602001600020600082015181600001908161031e9190611024565b5060208201518160010190816103349190611024565b5060408201518160020160006101000a81548160ff0219169083151502179055509050506002600081548092919061036b90611125565b91905055505050565b60015481565b600080600090506000600190505b60015481116103dc576003600082815260200190815260200160002060030160149054906101000a900460ff16156103c95781806103c590611125565b9250505b80806103d490611125565b915050610388565b508091505090565b6000600154905090565b60008054906101000a900473ffffffffffffffffffffffffffffffffffffffff1681565b6000600254905090565b600460205280600052604060002060009150905080600001805461043f90610e47565b80601f016020809104026020016040519081016040528092919081815260200182805461046b90610e47565b80156104b85780601f1061048d576101008083540402835291602001916104b8565b820191906000526020600020905b81548152906001019060200180831161049b57829003601f168201915b5050505050908060010180546104cd90610e47565b80601f01602080910402602001604051908101604052809291908181526020018280546104f990610e47565b80156105465780601f1061051b57610100808354040283529160200191610546565b820191906000526020600020905b81548152906001019060200180831161052957829003601f168201915b5050505050908060020160009054906101000a900460ff16905083565b60025481565b600460003373ffffffffffffffffffffffffffffffffffffffff1673ffffffffffffffffffffffffffffffffffffffff16815260200190815260200160002060020160009054906101000a900460ff166105f8576040517f08c379a00000000000000000000000000000000000000000000000000000000081526004016105ef906111b9565b60405180910390fd5b6001600081548092919061060b90611125565b91905055506040518060a0016040528060015481526020018381526020018281526020013373ffffffffffffffffffffffffffffffffffffffff168152602001600015158152506003600060015481526020019081526020016000206000820151816000015560208201518160010190816106869190611024565b506040820151816002015560608201518160030160006101000a81548173ffffffffffffffffffffffffffffffffffffffff021916908373ffffffffffffffffffffffffffffffffffffffff16021790555060808201518160030160146101000a81548160ff0219169083151502179055509050505050565b600360205280600052604060002060009150905080600001549080600101805461072890610e47565b80601f016020809104026020016040519081016040528092919081815260200182805461075490610e47565b80156107a15780601f10610776576101008083540402835291602001916107a1565b820191906000526020600020905b81548152906001019060200180831161078457829003601f168201915b5050505050908060020154908060030160009054906101000a900473ffffffffffffffffffffffffffffffffffffffff16908060030160149054906101000a900460ff16905085565b60008054906101000a900473ffffffffffffffffffffffffffffffffffffffff1673ffffffffffffffffffffffffffffffffffffffff163373ffffffffffffffffffffffffffffffffffffffff1614610878576040517f08c379a000000000000000000000000000000000000000000000000000000000815260040161086f9061124b565b60405180910390fd5b60006003600083815260200190815260200160002060000154036108d1576040517f08c379a00000000000000000000000000000000000000000000000000000000081526004016108c8906112b7565b60405180910390fd5b60016003600083815260200190815260200160002060030160146101000a81548160ff02191690831515021790555050565b6000604051905090565b600080fd5b600080fd5b600080fd5b600080fd5b6000601f19601f8301169050919050565b7f4e487b7100000000000000000000000000000000000000000000000000000000600052604160045260246000fd5b61096a82610921565b810181811067ffffffffffffffff8211171561098957610988610932565b5b80604052505050565b600061099c610903565b90506109a88282610961565b919050565b600067ffffffffffffffff8211156109c8576109c7610932565b5b6109d182610921565b9050602081019050919050565b82818337600083830152505050565b6000610a006109fb846109ad565b610992565b905082815260208101848484011115610a1c57610a1b61091c565b5b610a278482856109de565b509392505050565b600082601f830112610a4457610a43610917565b5b8135610a548482602086016109ed565b91505092915050565b60008060408385031215610a7457610a7361090d565b5b600083013567ffffffffffffffff811115610a9257610a91610912565b5b610a9e85828601610a2f565b925050602083013567ffffffffffffffff811115610abf57610abe610912565b5b610acb85828601610a2f565b9150509250929050565b6000819050919050565b610ae881610ad5565b82525050565b6000602082019050610b036000830184610adf565b92915050565b600073ffffffffffffffffffffffffffffffffffffffff82169050919050565b6000610b3482610b09565b9050919050565b610b4481610b29565b82525050565b6000602082019050610b5f6000830184610b3b565b92915050565b610b6e81610b29565b8114610b7957600080fd5b50565b600081359050610b8b81610b65565b92915050565b600060208284031215610ba757610ba661090d565b5b6000610bb584828501610b7c565b91505092915050565b600081519050919050565b600082825260208201905092915050565b60005b83811015610bf8578082015181840152602081019050610bdd565b60008484015250505050565b6000610c0f82610bbe565b610c198185610bc9565b9350610c29818560208601610bda565b610c3281610921565b840191505092915050565b60008115159050919050565b610c5281610c3d565b82525050565b60006060820190508181036000830152610c728186610c04565b90508181036020830152610c868185610c04565b9050610c956040830184610c49565b949350505050565b610ca681610ad5565b8114610cb157600080fd5b50565b600081359050610cc381610c9d565b92915050565b60008060408385031215610ce057610cdf61090d565b5b600083013567ffffffffffffffff811115610cfe57610cfd610912565b5b610d0a85828601610a2f565b9250506020610d1b85828601610cb4565b9150509250929050565b600060208284031215610d3b57610d3a61090d565b5b6000610d4984828501610cb4565b91505092915050565b600060a082019050610d676000830188610adf565b8181036020830152610d798187610c04565b9050610d886040830186610adf565b610d956060830185610b3b565b610da26080830184610c49565b9695505050505050565b7f5573657220616c72656164792072656769737465726564000000000000000000600082015250565b6000610de2601783610bc9565b9150610ded82610dac565b602082019050919050565b60006020820190508181036000830152610e1181610dd5565b9050919050565b7f4e487b7100000000000000000000000000000000000000000000000000000000600052602260045260246000fd5b60006002820490506001821680610e5f57607f821691505b602082108103610e7257610e71610e18565b5b50919050565b60008190508160005260206000209050919050565b60006020601f8301049050919050565b600082821b905092915050565b600060088302610eda7fffffffffffffffffffffffffffffffffffffffffffffffffffffffffffffffff82610e9d565b610ee48683610e9d565b95508019841693508086168417925050509392505050565b6000819050919050565b6000610f21610f1c610f1784610ad5565b610efc565b610ad5565b9050919050565b6000819050919050565b610f3b83610f06565b610f4f610f4782610f28565b848454610eaa565b825550505050565b600090565b610f64610f57565b610f6f818484610f32565b505050565b5b81811015610f9357610f88600082610f5c565b600181019050610f75565b5050565b601f821115610fd857610fa981610e78565b610fb284610e8d565b81016020851015610fc1578190505b610fd5610fcd85610e8d565b830182610f74565b50505b505050565b600082821c905092915050565b6000610ffb60001984600802610fdd565b1980831691505092915050565b60006110148383610fea565b9150826002028217905092915050565b61102d82610bbe565b67ffffffffffffffff81111561104657611045610932565b5b6110508254610e47565b61105b828285610f97565b600060209050601f83116001811461108e576000841561107c578287015190505b6110868582611008565b8655506110ee565b601f19841661109c86610e78565b60005b828110156110c45784890151825560018201915060208501945060208101905061109f565b868310156110e157848901516110dd601f891682610fea565b8355505b6001600288020188555050505b505050505050565b7f4e487b7100000000000000000000000000000000000000000000000000000000600052601160045260246000fd5b600061113082610ad5565b91507fffffffffffffffffffffffffffffffffffffffffffffffffffffffffffffffff8203611162576111616110f6565b5b600182019050919050565b7f55736572206e6f74207265676973746572656400000000000000000000000000600082015250565b60006111a3601383610bc9565b91506111ae8261116d565b602082019050919050565b600060208201905081810360008301526111d281611196565b9050919050565b7f4f6e6c79206f776e65722063616e20706572666f726d2074686973206163746960008201527f6f6e000000000000000000000000000000000000000000000000000000000000602082015250565b6000611235602283610bc9565b9150611240826111d9565b604082019050919050565b6000602082019050818103600083015261126481611228565b9050919050565b7f4c616e6420646f6573206e6f7420657869737400000000000000000000000000600082015250565b60006112a1601383610bc9565b91506112ac8261126b565b602082019050919050565b600060208201905081810360008301526112d081611294565b905091905056fea264697066735822122043938f55b6fc8ee0965cc08f784ac23237e38ebfd5a994d341236d70abcb42c464736f6c63430008180033",
  "linkReferences": {},
  "deployedLinkReferences": {}
}